{
  "_format": "hh-sol-artifact-1",
  "contractName": "SearchAddress",
  "sourceName": "contracts/SearchAddress.sol",
  "abi": [
    {
      "inputs": [
        {
          "internalType": "string",
          "name": "_searchaddress",
          "type": "string"
        }
      ],
      "stateMutability": "nonpayable",
      "type": "constructor"
    },
    {
      "inputs": [],
      "name": "firstBlock",
      "outputs": [
        {
          "internalType": "string",
          "name": "",
          "type": "string"
        }
      ],
      "stateMutability": "view",
      "type": "function"
    },
    {
      "inputs": [
        {
          "internalType": "string",
          "name": "searchaddress",
          "type": "string"
        },
        {
          "internalType": "int256",
          "name": "startBlockNumber",
          "type": "int256"
        },
        {
          "internalType": "int256",
          "name": "endBlockNumber",
          "type": "int256"
        }
      ],
      "name": "getAccountTransactions",
      "outputs": [
        {
          "internalType": "string",
          "name": "",
          "type": "string"
        }
      ],
      "stateMutability": "nonpayable",
      "type": "function"
    },
    {
      "inputs": [],
      "name": "lastBlock",
      "outputs": [
        {
          "internalType": "string",
          "name": "",
          "type": "string"
        }
      ],
      "stateMutability": "view",
      "type": "function"
    },
    {
      "inputs": [],
      "name": "searchAddress",
      "outputs": [
        {
          "internalType": "string",
          "name": "",
          "type": "string"
        }
      ],
      "stateMutability": "view",
      "type": "function"
    },
    {
      "inputs": [
        {
          "internalType": "string",
          "name": "_firstblock",
          "type": "string"
        }
      ],
      "name": "setFirstBlock",
      "outputs": [],
      "stateMutability": "nonpayable",
      "type": "function"
    },
    {
      "inputs": [
        {
          "internalType": "string",
          "name": "_lastblock",
          "type": "string"
        }
      ],
      "name": "setLastBlock",
      "outputs": [],
      "stateMutability": "nonpayable",
      "type": "function"
    },
    {
      "inputs": [
        {
          "internalType": "string",
          "name": "_searchaddress",
          "type": "string"
        }
      ],
      "name": "setSearchAddress",
      "outputs": [],
      "stateMutability": "nonpayable",
      "type": "function"
    }
  ],
  "bytecode": "0x60806040523480156200001157600080fd5b506040516200117d3803806200117d833981810160405281019062000037919062000278565b620000676040518060600160405280602681526020016200115760269139826200008760201b620006271760201c565b80600090805190602001906200007f92919062000156565b5050620004c5565b620001298282604051602401620000a0929190620002fe565b6040516020818303038152906040527f4b5c4277000000000000000000000000000000000000000000000000000000007bffffffffffffffffffffffffffffffffffffffffffffffffffffffff19166020820180517bffffffffffffffffffffffffffffffffffffffffffffffffffffffff83818316178352505050506200012d60201b60201c565b5050565b60008151905060006a636f6e736f6c652e6c6f679050602083016000808483855afa5050505050565b8280546200016490620003ea565b90600052602060002090601f016020900481019282620001885760008555620001d4565b82601f10620001a357805160ff1916838001178555620001d4565b82800160010185558215620001d4579182015b82811115620001d3578251825591602001919060010190620001b6565b5b509050620001e39190620001e7565b5090565b5b8082111562000202576000816000905550600101620001e8565b5090565b60006200021d620002178462000362565b62000339565b9050828152602081018484840111156200023657600080fd5b62000243848285620003b4565b509392505050565b600082601f8301126200025d57600080fd5b81516200026f84826020860162000206565b91505092915050565b6000602082840312156200028b57600080fd5b600082015167ffffffffffffffff811115620002a657600080fd5b620002b4848285016200024b565b91505092915050565b6000620002ca8262000398565b620002d68185620003a3565b9350620002e8818560208601620003b4565b620002f381620004b4565b840191505092915050565b600060408201905081810360008301526200031a8185620002bd565b90508181036020830152620003308184620002bd565b90509392505050565b60006200034562000358565b905062000353828262000420565b919050565b6000604051905090565b600067ffffffffffffffff82111562000380576200037f62000485565b5b6200038b82620004b4565b9050602081019050919050565b600081519050919050565b600082825260208201905092915050565b60005b83811015620003d4578082015181840152602081019050620003b7565b83811115620003e4576000848401525b50505050565b600060028204905060018216806200040357607f821691505b602082108114156200041a576200041962000456565b5b50919050565b6200042b82620004b4565b810181811067ffffffffffffffff821117156200044d576200044c62000485565b5b80604052505050565b7f4e487b7100000000000000000000000000000000000000000000000000000000600052602260045260246000fd5b7f4e487b7100000000000000000000000000000000000000000000000000000000600052604160045260246000fd5b6000601f19601f8301169050919050565b610c8280620004d56000396000f3fe608060405234801561001057600080fd5b506004361061007d5760003560e01c806370726e271161005b57806370726e27146100da578063710da37d1461010a578063806b984f146101265780638e68659c146101445761007d565b8063156f659a14610082578063231b02681461009e57806357894772146100bc575b600080fd5b61009c600480360381019061009791906108ab565b610160565b005b6100a6610227565b6040516100b3919061098c565b60405180910390f35b6100c46102b9565b6040516100d1919061098c565b60405180910390f35b6100f460048036038101906100ef91906108ec565b61034b565b604051610101919061098c565b60405180910390f35b610124600480360381019061011f91906108ab565b610407565b005b61012e6104ce565b60405161013b919061098c565b60405180910390f35b61015e600480360381019061015991906108ab565b610560565b005b61020d604051806060016040528060268152602001610c27602691396001805461018990610aef565b80601f01602080910402602001604051908101604052809291908181526020018280546101b590610aef565b80156102025780601f106101d757610100808354040283529160200191610202565b820191906000526020600020905b8154815290600101906020018083116101e557829003601f168201915b5050505050836106c3565b806001908051906020019061022392919061078b565b5050565b60606001805461023690610aef565b80601f016020809104026020016040519081016040528092919081815260200182805461026290610aef565b80156102af5780601f10610284576101008083540402835291602001916102af565b820191906000526020600020905b81548152906001019060200180831161029257829003601f168201915b5050505050905090565b6060600080546102c890610aef565b80601f01602080910402602001604051908101604052809291908181526020018280546102f490610aef565b80156103415780601f1061031657610100808354040283529160200191610341565b820191906000526020600020905b81548152906001019060200180831161032457829003601f168201915b5050505050905090565b6060604051806020016040528060008152506003908051906020019061037292919061078b565b506003805461038090610aef565b80601f01602080910402602001604051908101604052809291908181526020018280546103ac90610aef565b80156103f95780601f106103ce576101008083540402835291602001916103f9565b820191906000526020600020905b8154815290600101906020018083116103dc57829003601f168201915b505050505090509392505050565b6104b4604051806060016040528060258152602001610bd9602591396002805461043090610aef565b80601f016020809104026020016040519081016040528092919081815260200182805461045c90610aef565b80156104a95780601f1061047e576101008083540402835291602001916104a9565b820191906000526020600020905b81548152906001019060200180831161048c57829003601f168201915b5050505050836106c3565b80600290805190602001906104ca92919061078b565b5050565b6060600280546104dd90610aef565b80601f016020809104026020016040519081016040528092919081815260200182805461050990610aef565b80156105565780601f1061052b57610100808354040283529160200191610556565b820191906000526020600020905b81548152906001019060200180831161053957829003601f168201915b5050505050905090565b61060d604051806060016040528060298152602001610bfe602991396000805461058990610aef565b80601f01602080910402602001604051908101604052809291908181526020018280546105b590610aef565b80156106025780601f106105d757610100808354040283529160200191610602565b820191906000526020600020905b8154815290600101906020018083116105e557829003601f168201915b5050505050836106c3565b806000908051906020019061062392919061078b565b5050565b6106bf828260405160240161063d9291906109ae565b6040516020818303038152906040527f4b5c4277000000000000000000000000000000000000000000000000000000007bffffffffffffffffffffffffffffffffffffffffffffffffffffffff19166020820180517bffffffffffffffffffffffffffffffffffffffffffffffffffffffff8381831617835250505050610762565b5050565b61075d8383836040516024016106db939291906109e5565b6040516020818303038152906040527f2ced7cef000000000000000000000000000000000000000000000000000000007bffffffffffffffffffffffffffffffffffffffffffffffffffffffff19166020820180517bffffffffffffffffffffffffffffffffffffffffffffffffffffffff8381831617835250505050610762565b505050565b60008151905060006a636f6e736f6c652e6c6f679050602083016000808483855afa5050505050565b82805461079790610aef565b90600052602060002090601f0160209004810192826107b95760008555610800565b82601f106107d257805160ff1916838001178555610800565b82800160010185558215610800579182015b828111156107ff5782518255916020019190600101906107e4565b5b50905061080d9190610811565b5090565b5b8082111561082a576000816000905550600101610812565b5090565b600061084161083c84610a56565b610a31565b90508281526020810184848401111561085957600080fd5b610864848285610aad565b509392505050565b60008135905061087b81610bc1565b92915050565b600082601f83011261089257600080fd5b81356108a284826020860161082e565b91505092915050565b6000602082840312156108bd57600080fd5b600082013567ffffffffffffffff8111156108d757600080fd5b6108e384828501610881565b91505092915050565b60008060006060848603121561090157600080fd5b600084013567ffffffffffffffff81111561091b57600080fd5b61092786828701610881565b93505060206109388682870161086c565b92505060406109498682870161086c565b9150509250925092565b600061095e82610a87565b6109688185610a92565b9350610978818560208601610abc565b61098181610bb0565b840191505092915050565b600060208201905081810360008301526109a68184610953565b905092915050565b600060408201905081810360008301526109c88185610953565b905081810360208301526109dc8184610953565b90509392505050565b600060608201905081810360008301526109ff8186610953565b90508181036020830152610a138185610953565b90508181036040830152610a278184610953565b9050949350505050565b6000610a3b610a4c565b9050610a478282610b21565b919050565b6000604051905090565b600067ffffffffffffffff821115610a7157610a70610b81565b5b610a7a82610bb0565b9050602081019050919050565b600081519050919050565b600082825260208201905092915050565b6000819050919050565b82818337600083830152505050565b60005b83811015610ada578082015181840152602081019050610abf565b83811115610ae9576000848401525b50505050565b60006002820490506001821680610b0757607f821691505b60208210811415610b1b57610b1a610b52565b5b50919050565b610b2a82610bb0565b810181811067ffffffffffffffff82111715610b4957610b48610b81565b5b80604052505050565b7f4e487b7100000000000000000000000000000000000000000000000000000000600052602260045260246000fd5b7f4e487b7100000000000000000000000000000000000000000000000000000000600052604160045260246000fd5b6000601f19601f8301169050919050565b610bca81610aa3565b8114610bd557600080fd5b5056fe4368616e67696e67206c61737420626c6f636b2066726f6d202725732720746f20272573274368616e67696e672073656172636820616464726573732066726f6d202725732720746f20272573274368616e67696e6720666972737420626c6f636b2066726f6d202725732720746f2027257327a264697066735822122099b94915fef005e5d5f8eb7d3643b31254d82d0df3793927dc65011816d1a3ad64736f6c634300080300334465706c6f79696e67206120636f6e747261637420746f20736561726368616464726573733a",
  "linkReferences": {},
  "deployedLinkReferences": {}
}